:020000040000FA
:100000000B280710013088008714DD208710DD20C1
:020010000B28BB
:040012000034003482
:0A00160083120313850183160317FC
:100020008801890183160313FF308500860187014B
:10003000880189010313831287100710071001300C
:1000400088008714DD208710DD200C30880087149D
:10005000DD208710DD203C3088008714DD208710EC
:10006000DD200508C0000310C00CC0060710DD200D
:10007000C8308800D8200714DD203A308800D82006
:100080002D308800D8202D308800D82042308800BC
:10009000D82069308800D8206E308800D8202D30D4
:1000A0008800D8202D308800D8200710DD20C030EF
:1000B0008800D8200714DD20851FC820851BD0208C
:1000C000051FC820051BD020851EC820851AD020FA
:1000D000051EC820051AD020851DC8208519D020EE
:1000E000051DC8200519D020851CC8208518D020E2
:1000F000051CC8200518D0200710DD208830880096
:10010000D8200714DD203A308800D8202D30880010
:10011000D8202D308800D82047308800D820723071
:100120008800D82061308800D82079308800D82015
:100130002D308800D8200710DD2080308800D8209E
:100140000714DD20C01FC820C01BD020401FC820BE
:10015000401BD020C01EC820C01AD020401EC8207E
:10016000401AD020C01DC820C019D020401DC82072
:100170004019D020C01CC820C018D020401CC82066
:100180004018D0200710DD2080308800D82031288A
:10019000303088008714DD208710DD200000080043
:1001A000313088008714DD208710DD200000080032
:1001B0008714DD208710DD200800B0010A30B1006F
:0E01C0005030B000B00BE228B10BE028080070
:02400E00F42C90
:02401000FF3F70
:00000001FF
